:020000040800F2
:1000000000000220B53800086106000863060008F9
:100010006506000867060008690600080000000081
:100020000000000000000000000000006B06000857
:100030006D060008000000006F0600087106000849
:100040000539000805390008053900080539000898
:100050000539000805390008053900080539000888
:100060000539000805390008053900080539000878
:100070000539000805390008053900080539000868
:100080000539000805390008053900080539000858
:100090000539000805390008053900080539000848
:1000A0000539000805390008053900080539000838
:1000B0000539000805390008053900080539000828
:1000C0000539000805390008053900080539000818
:1000D0000539000805390008053900080539000808
:1000E00005390008053900080539000805390008F8
:1000F00005390008053900080539000805390008E8
:1001000005390008053900080539000805390008D7
:1001100005390008053900080539000805390008C7
:1001200005390008053900080539000805390008B7
:1001300005390008053900080539000805390008A7
:100140000539000805390008053900087906000856
:100150000539000805390008053900080539000887
:100160000539000805390008053900080539000877
:1001700005390008053900080539000800000000AD
:080180000539000805390008EB
:1001880010B5054C237833B9044B13B10448AFF3C9
:1001980000800123237010BDE4010020000000004E
:1001A800103B000808B5034B1BB103490348AFF3E4
:1001B800008008BD00000000E8010020103B000896
:1001C80053B94AB9002908BF00281CBF4FF0FF31B6
:1001D8004FF0FF3000F072B9ADF1080C6DE904CEB4
:1001E80000F006F8DDF804E0DDE9022304B070470A
:1001F8002DE9F047089E04468846002B4BD18A42D9
:10020800154667D9B2FA82F24AB1C2F1200701FA5B
:1002180002F320FA07F7954047EA030894404FEAAB
:10022800154E230CB8FBFEF71FFA85FC0EFB17884A
:1002380043EA084307FB0CF1994209D9EB1807F187
:10024800FF3080F01B81994240F21881023F2B4415
:100258005B1AA4B2B3FBFEF00EFB103344EA03446E
:1002680000FB0CFCA44509D92C1900F1FF3380F0E0
:100278000781A44540F2048102382C4440EA074033
:10028800A4EB0C0400271EB1D4400023C6E90043A8
:100298003946BDE8F0878B4209D9002E00F0EB8083
:1002A8000027C6E9000138463946BDE8F087B3FAA9
:1002B80083F7002F47D18B4202D3824200F2FA80A3
:1002C800841A61EB030301209846002EE0D0C6E9AA
:1002D8000048DDE702B9FFDEB2FA82F2002A40F0F8
:1002E8008F80491B4FEA154E1FFA85F80127B1FB8D
:1002F800FEFC230C0EFB1C1143EA014308FB0CF126
:10030800994207D9EB180CF1FF3002D2994200F25A
:10031800CD808446591AA3B2B1FBFEF00EFB10142F
:1003280043EA044408FB00F8A04507D92C1900F15A
:10033800FF3302D2A04500F2B6801846A4EB0804A9
:1003480040EA0C409FE7C7F1200CBB4022FA0CFEA4
:100358004EEA030E01FA07F420FA0CF521FA0CF321
:100368004FEA1E482543B3FBF8F92C0C08FB193358
:100378001FFA8EFA44EA034309FB0AF49C4202FA84
:1003880007F200FA07F10BD91EEB030309F1FF305E
:1003980080F087809C4240F28480A9F1020973446E
:1003A8001B1BADB2B3FBF8F008FB103345EA03445E
:1003B80000FB0AFAA24508D91EEB040400F1FF333A
:1003C8006BD2A24569D90238744440EA0940A0FBBF
:1003D8000289A4EB0A044C45C2464B4654D351D07B
:1003E800002E69D0B1EB0A0564EB030404FA0CFC97
:1003F800FD40FC404CEA0505C6E90054002747E7E4
:10040800C2F1200320FA03F7954001FA02F021FA1D
:1004180003F34FEA154E3843010CB3FBFEF71FFAFE
:1004280085F80EFB173341EA034107FB08F38B42BB
:1004380004FA02F407D9691807F1FF3C2FD28B425E
:100448002DD9023F2944CB1A81B2B3FBFEF00EFB33
:10045800103341EA034100FB08F38B4207D96918BE
:1004680000F1FF3C17D28B4215D902382944C91A2A
:1004780040EA07473BE73746304609E70746E7E6DD
:100488001846FBE64145ABD2B8EB020A69EB0E020F
:1004980001381346A4E76046E9E7184695E767463A
:1004A800D1E781467CE702382C4447E7ACF1020CDF
:1004B8002B442FE7384608E73746E9E6704700BF80
:1004C80072B6FEE700B595B03022002108A803F007
:1004D8004BFA002303930493059306930793019320
:1004E8001F4A116C41F080511164126C02F0805265
:1004F8000192019A02931B4B1A6842F480421A60D7
:100508001B6803F480430293029B032308934FF470
:100518008033099301230B9310230C9302230E932A
:100528004FF480020F920F22109290221192129390
:100538000523139308A800F0BFF868B90F230393A5
:100548000021049105910691079103A800F0FEFA95
:1005580020B915B05DF804FBFFF7B2FFFFF7B0FF55
:10056800003802400070004000B583B000F028FD5C
:10057800FFF7A8FF00F026F800F070FD55238DF86E
:1005880004300F4C4FF40041204600F07FFC6420FB
:1005980000F042FD4FF48041204600F077FC6420D3
:1005A80000F03AFD4FF40051204600F06FFC642043
:1005B80000F032FD012101A800F032FEE1E700BFA2
:1005C800000C024030B58BB00024059406940794C3
:1005D8000894099401941E4B1A6B42F004021A63A2
:1005E8001A6B02F004020192019A02941A6B42F00B
:1005F80080021A631A6B02F080020292029A039434
:100608001A6B42F008021A631A6B02F0080203928E
:10061800039A04941A6B42F001021A631B6B03F0ED
:1006280001030493049B0B4D22464FF21001284608
:1006380000F026FC4FF2100305930123069307945C
:10064800089405A9284600F037FB0BB030BD00BF61
:1006580000380240000C0240FEE7FEE7FEE7FEE736
:10066800FEE770477047704708B500F0C3FC08BD47
:1006780008B5024801F000F908BD00BFE4160020E3
:1006880082B0002100910B4B5A6C42F480425A64AC
:100698005A6C02F480420092009A01911A6C42F05E
:1006A80080521A641B6C03F080530193019B02B0C3
:1006B800704700BF00380240002800F0E48170B5A0
:1006C80082B00446036813F0010F3BD0A74B9B6828
:1006D80003F00C03042B2CD0A44B9B6803F00C03F1
:1006E800082B21D06368B3F5803F4FD0B3F5A02F16
:1006F80052D09E4B1A6822F480321A601A6822F48B
:1007080080221A606368002B50D000F07FFC0546F9
:10071800964B1B6813F4003F14D100F077FC401B84
:100728006428F5D90320B3E1904B5B6813F4800F7C
:10073800D8D08E4B1B6813F4003F03D06368002B9E
:1007480000F0A381236813F0020F55D0874B9B68F4
:1007580013F00C0F3ED0854B9B6803F00C03082B5D
:1007680033D0E368002B68D0814B01221A6000F077
:100778004DFC05467D4B1B6813F0020F54D100F069
:1007880045FC401B0228F5D9032081E1774A13680C
:1007980043F480331360B5E7744B1A6842F480223F
:1007A8001A601A6842F480321A60ABE700F02EFC37
:1007B80005466E4B1B6813F4003FC3D000F026FCBF
:1007C800401B6428F5D9032062E1684B5B6813F489
:1007D800800FC6D1654B1B6813F0020F04D0E36885
:1007E800012B01D0012053E1604A136823F0F8037C
:1007F800216943EAC1031360236813F0080F40D04E
:10080800636963B35B4B01221A6000F0FFFB054686
:10081800564B5B6F13F0020F33D100F0F7FB401B10
:100828000228F5D9032033E1504A136823F0F8036E
:10083800216943EAC1031360DEE74D4B00221A60C9
:1008480000F0E4FB0546494B1B6813F0020FD3D0B8
:1008580000F0DCFB401B0228F5D9032018E1454BCA
:1008680000221A6000F0D2FB0546404B5B6F13F084
:10087800020F06D000F0CAFB401B0228F5D903205E
:1008880006E1236813F0040F79D0384B1B6C13F082
:10089800805F33D100230193344B1A6C42F08052AD
:1008A8001A641B6C03F080530193019B0125324BA2
:1008B8001B6813F4807F23D0A368012B34D0052B49
:1008C80038D02A4B1A6F22F001021A671A6F22F0E9
:1008D80004021A67A368002B36D000F097FB06467F
:1008E800224B1B6F13F0020F48D100F08FFB801BC7
:1008F80041F288339842F3D90320C9E00025D6E7AE
:100908001D4A136843F48073136000F07FFB0646AA
:10091800194B1B6813F4807FCED100F077FB801B46
:100928000228F5D90320B3E0104A136F43F00103FE
:100938001367CFE70D4B1A6F42F004021A671A6F5C
:1009480042F001021A67C5E700F060FB0646074B54
:100958001B6F13F0020F11D000F058FB801B41F2FF
:1009680088339842F3D9032092E000BF0038024050
:1009780000004742800E474200700040EDB9A3696D
:10098800002B00F08480454A926802F00C02082A85
:1009980051D0022B17D0424B00221A6000F036FBD0
:1009A80004463E4B1B6813F0007F42D000F02EFB3C
:1009B800001B0228F5D903206AE0384A136C23F09B
:1009C80080531364DBE7364B00221A6000F01EFBED
:1009D8000546324B1B6813F0007F06D000F016FB6B
:1009E800401B0228F5D9032052E0E369226A134329
:1009F800626A43EA8213A26A5208013A43EA02434E
:100A0800E26A43EA0263254A5360254B01221A60D1
:100A180000F0FCFA0446214B1B6813F0007F06D156
:100A280000F0F4FA001B0228F5D9032030E000207A
:100A38002EE000202CE0012B2CD0184B5B6803F42F
:100A48008001E269914201D0012021E003F03F02D8
:100A5800216A8A4201D001201AE0616A47F6C07211
:100A68001A408A4201D0012012E003F44032A16A00
:100A78008A4201D001200BE003F07063E26A9342DE
:100A88000AD0012004E001207047012000E0002086
:100A980002B070BD0120FBE70020F9E700380240F2
:100AA80060004742264B9B6803F00C03042B44D09C
:100AB800082B01D0234870472DE9F04B204B5A688A
:100AC80002F03F025B6813F4800F13D01C4B596887
:100AD800C1F3881100231C48A1FB0001FFF770FB3C
:100AE800174B5B68C3F3014301335B00B0FBF3F0C2
:100AF800BDE8F08B124B5B68C3F388131E460027D2
:100B08005C010025E41A65EB0705A90141EA946137
:100B1800A001001B61EB0501CB0043EA5073C40040
:100B2800A01943EB07018B0243EA90538402204645
:100B380019460023FFF744FBD2E70348704700BF7C
:100B4800003802400024F40040787D01002800F0BD
:100B58009E8070B50446504B1B6803F00F038B4210
:100B680009D2CBB24C4A1370136803F00F038B42BF
:100B780001D0012070BD236813F0020F17D013F0C5
:100B8800040F04D0454A936843F4E0539360236804
:100B980013F0080F04D0414A936843F4604393600C
:100BA8003E4A936823F0F003A068034393600D4620
:100BB800236813F0010F32D06368012B21D09A1EED
:100BC800012A25D9354A126812F0020F61D033493B
:100BD8008A6822F0030213438B6000F017FA064676
:100BE8002E4B9B6803F00C036268B3EB820F16D0A0
:100BF80000F00CFA801B41F288339842F0D90320A8
:100C0800B8E7264A126812F4003FE0D10120B1E7A4
:100C1800224A126812F0007FD9D10120AAE71E4BA0
:100C28001B6803F00F03AB4209D9EAB21A4B1A70DA
:100C38001B6803F00F03AB4201D001209AE7236839
:100C480013F0040F06D0154A936823F4E053E168C3
:100C58000B439360236813F0080F07D00F4A93687B
:100C680023F46043216943EAC1039360FFF71AFF45
:100C78000A4B9B68C3F30313094AD35CD840094B5A
:100C88001860094B186800F075F9002072E7012018
:100C9800704701206EE700BF003C02400038024068
:100CA800283B00080800002004000020014B1868B9
:100CB800704700BF0800002000230F2B00F2D780E8
:100CC800F0B583B039E0072200E00022AA403A4399
:100CD8000234674D45F82420664A1468F24302EA54
:100CE80004054F6817F4803F01D046EA0405614CBB
:100CF8002560646802EA04054F6817F4003F01D0D4
:100D080046EA04055B4C6560A46802EA04054F687E
:100D180017F4801F01D046EA0405564CA560E46824
:100D280022404D6815F4001F01D046EA0402514CD8
:100D3800E26001330F2B00F2988001229A400C6880
:100D480004EA0206B242F4D14C68651E012D03D9AB
:100D5800112C01D0122C12D185685F000324BC40ED
:100D680025EA0405CC68BC402C438460456825EA24
:100D780002054C68C4F300129A402A434260C468D2
:100D88005F000322BA40D24314408D68BD4025431A
:100D9800C5604C68022C01D0122C13D1DD0808352F
:100DA80050F825E003F007044FEA840C0F2404FAF6
:100DB8000CF42EEA040E0C6904FA0CF444EA0E044E
:100DC80040F82540046822404C6804F00304BC4005
:100DD800224302604A6812F0805FAAD00022019282
:100DE800254A546C44F480445464526C02F48042A2
:100DF8000192019A9C08A51C1D4A52F8257003F01F
:100E0800030295000F22AA4027EA02071B4A9042D4
:100E18003FF45BAF02F5806290421AD002F580621F
:100E2800904218D002F58062904216D002F5806296
:100E3800904214D002F58062904212D002F580628E
:100E4800904210D002F5806290423FF43CAF0822F5
:100E58003CE701223AE7022238E7032236E7042278
:100E680034E7052232E7062230E703B0F0BD7047C9
:100E780000380140003C01400038024000000240B8
:100E880012B909048161704781617047436931EA89
:100E9800030301D081617047090481617047000034
:100EA800074AD36823F4E0631B041B0C000200F418
:100EB800E060184340F0BF6040F40030D0607047F5
:100EC80000ED00E030B4174BDB68C3F30223C3F135
:100ED8000704042C28BF04241D1D062D18D9033B24
:100EE8004FF0FF3505FA04F421EA0401994005FAA8
:100EF80003F322EA0303194300280BDB0901C9B2F3
:100F080000F1604000F5614080F8001330BC704784
:100F18000023E5E700F00F000901C9B2024B19549C
:100F2800F4E700BF00ED00E014ED00E0002807DB67
:100F380000F01F02400901239340024A42F8203082
:100F4800704700BF00E100E00138B0F1807F0AD2AD
:100F5800064B5860064AF02182F82310002098605A
:100F680007221A6070470120704700BF10E000E0B8
:100F780000ED00E010B504460E4B18784FF47A7374
:100F8800B3FBF0F30C4A1068B0FBF3F0FFF7DCFF9B
:100F980068B90F2C01D901200AE0002221464FF040
:100FA800FF30FFF78FFF054B1C60002000E0012099
:100FB80010BD00BF00000020080000200400002031
:100FC80008B50B4B1A6842F400721A601A6842F4AA
:100FD80080621A601A6842F480721A600320FFF770
:100FE8005FFF0020FFF7C6FFFFF74AFB002008BDA0
:100FF800003C0240034A1168034B1B780B44136002
:10100800704700BF1002002000000020014B186844
:10101800704700BF1002002038B50446FFF7F6FFFE
:101028000546B4F1FF3F02D0044B1B781C44FFF780
:10103800EDFF401BA042FAD338BD00BF00000020DE
:10104800054BD3F8882042F47002C3F888204FF08B
:1010580000629A60704700BF00ED00E008B500220A
:101068000F49104801F068FD70B90F490D4801F0AB
:101078007FFD60B90D490B4802F0CFFB50B9094814
:1010880001F08AFD48B908BDFFF71AFAEDE7FFF746
:1010980017FAEFE7FFF714FAF1E7FFF711FAF2E7AB
:1010A8000C00002014020020700000205C000020CA
:1010B80012230B80004870472800002004230B806F
:1010C800004870473C0000200023934216D230B4F9
:1010D8000BE0373401F8134000015C0001340025AF
:1010E8000D550133DBB2934206D2040F092CF0D818
:1010F800303401F81340EFE730BC70477047000008
:1011080038B50A4B186804331C6804331B68C018C8
:1011180000D138BD064D0822A91CFFF7D5FF0422CF
:1011280005F112012046FFF7CFFFF2E7107AFF1F03
:101138004000002008B51A230B80FFF7E1FF0148A3
:1011480008BD00BF4000002008B50A4628B105497F
:10115800054802F096F9034808BD0249024802F022
:1011680090F9F8E7E4040020683B000810B5044C47
:101178000A462146034802F084F9204610BD00BF04
:10118800E4040020543B000808B50A4628B1054984
:10119800054802F076F9034808BD0249024802F002
:1011A80070F9F8E7E4040020383B000808B50A465F
:1011B80028B10549054802F064F9034808BD024909
:1011C800024802F05EF9F8E7E4040020443B000816
:1011D80000207047002070470020704710B5054C6C
:1011E8000146204602F028FB204602F045FB00207D
:1011F80010BD00BF1402002010B5064C002206499D
:10120800204602F011FB0549204602F015FB00209C
:1012180010BD00BF14020020E40E0020E4060020E8
:10122800094BD3F8BC32D3F814320BB10120704704
:1012380010B50A460146044C204602F0F5FA20464D
:1012480002F000FB10BD00BF1402002030B589B0C9
:101258000023039304930593069307930368B3F15C
:10126800A04F01D009B030BD00250195164C236B65
:1012780043F001032363236B03F001030193019BF4
:101288004FF4C053039302230493032306930A23C2
:10129800079303A90D48FFF70FFD636B43F0800325
:1012A80063630295636C43F480436364636C03F483
:1012B80080430293029B2A4629464320FFF702FEF9
:1012C8004320FFF733FECDE700380240000002401C
:1012D80008B500F57171D0F8040401F072FC08BD7E
:1012E80008B5C1EBC10293000344D3F80822D0F833
:1012F800040401F092FC08BD08B5C1EBC1029300DB
:1013080003449A6CD0F8040401F0C0FC08BD08B589
:10131800D0F8040401F055FD08BD10B50446C368B3
:101328002BB1022B0DD0FFF7CBF8012100E00021F3
:10133800D4F8040401F02EFDD4F8040401F001FDF2
:1013480010BD0121F4E7000010B50446D0F80404EC
:1013580001F023FD2268D2F8003E43F00103C2F8F1
:10136800003E236A23B1034A136943F0060313615D
:1013780010BD00BF00ED00E008B5D0F8040401F08E
:1013880015FD08BD08B5D0F8040401F02AFD08BD14
:1013980008B5D0F8040401F022FD08BD08B5D0F85E
:1013A800040401F020FD08BD08B5D0F8040401F0DC
:1013B8001CFD08BD03780BB10020704710B503462B
:1013C8001548C0F80434C3F8C4024FF0A0430360C2
:1013D800042343600222C260002303618261C36167
:1013E80003624362C362036300F0EBF880B90A4CFE
:1013F8008021204600F01CFE40220021204600F0FB
:10140800F3FD80220121204600F0EEFD002010BDF2
:10141800FFF756F8EBE700BFE4160020D0F8C43217
:1014280011F0800F08D101F07F01C1EBC1018A00E2
:10143800134493F8FE01704701F07F01C1EBC1012D
:101448008A00134493F83E00704708B5D0F8C402E8
:1014580000F01FFD08BD18B1022803D00320704713
:10146800002070470120704708B5D0F8C40200F08A
:1014780039F9FFF7F0FF08BD10B51C4613462246A0
:10148800D0F8C40200F05FFCFFF7E5FF10BD08B517
:10149800D0F8C40200F098FCFFF7DDFF08BD08B5DE
:1014A800D0F8C40200F028FDFFF7D5FF08BD08B545
:1014B800D0F8C40200F061FDFFF7CDFF08BD08B504
:1014C800D0F8C40200F02BFCFFF7C5FF08BD08B533
:1014D800D0F8C40200F0E6FCFFF7BDFF08BD08B570
:1014E800D0F8C40200F0A7FCFFF7B5FF08BD2DE94E
:1014F800F04782B00768CA00521A930003445A6D35
:101508001B6D9A4257D8B8469B1AC1EBC104A2007A
:101518000244526C9A4200D31A460C46064602F11F
:10152800030A4FEA9A0A16E009F1030A4FEA9A0AEF
:10153800E3001B1B9D003544A96C337C00931FFA04
:1015480089F3E2B2384601F0C5F8AB6C4B44AB64A2
:101558006B6D4B446B6508EB441303F510639B6993
:101568009BB2534513D3E3001B1B9A003244516DC1
:10157800136D99420BD253B15B1AC4EBC4018A00B4
:101588003244D2F844909945CED39946CCE7E3004B
:101598001B1B98000644326D736D9A420FD804F0F5
:1015A8000F040121A140D7F8344824EA0104C7F800
:1015B8003448002000E0012002B0BDE8F087002098
:1015C800FAE7F0B58BB0002800F08A800446056879
:1015D80090F8BD3323B3032384F8BD33EB6B13F4C6
:1015E800807F01D100232361206800F007FE254693
:1015F80055F8107B6E460FCD0FC60FCD0FC695E878
:10160800030086E80300231D0ECB384600F034FDA6
:1016180058B1022384F8BD33012528460BB0F0BD2C
:1016280080F8BC33FFF712FED5E70021206800F0F0
:10163800EBFD002315E0D900C81A820022440120DE
:1016480082F83D0082F83C30A2F84230002082F84F
:101658003F0050649064CA1A910021440865013320
:10166800DBB26568AB42E6D3002315E0D800C11AA7
:101678008A002244002182F8FD1182F8FC3182F8A8
:10168800FF11C2F80412C2F80812C21A90002044CE
:10169800C0F810120133DBB29D42E7D8254655F851
:1016A800107B6E460FCD0FC60FCD0FC695E8030011
:1016B80086E80300231D0ECB384600F0EBFD0546F7
:1016C80020B1022384F8BD330125A6E7002384F85E
:1016D8003830012384F8BD33206801F0AAF99CE76B
:1016E80001259AE7026890F8BC33012B19D010B590
:1016F800012380F8BC33836A012B0AD004460068B2
:1017080000F076FD206801F086F9002084F8BC031B
:1017180010BD8369012BF1D0936B43F4803393633D
:10172800ECE702207047000070B504460D460068DB
:10173800066C00EB411303F530639A6821690129AF
:1017480011D037498E4254D03DB9C5EBC50293003C
:101758002344D3F81032002B5CD0E9B22046FFF7BF
:10176800BFFD002070BD12F0080F09D02D498E4230
:10177800F7D912F4004FF4D04FF400429A60F0E722
:1017880012F0200F28D112F0280FEAD125498E42F5
:1017980002D912F4004F22D1E900491B8A002244E1
:1017A800D2F804121B69C3F31203C91AC2F814123F
:1017B800D2F80412D2F808320B44C2F8083235B90C
:1017C800C5EBC50293002344D3F810325BB1E9B2EC
:1017D8002046FFF785FDC4E720229A60C1E74FF451
:1017E80000429A60BDE704F57172012101F074F9B5
:1017F800EDE712F4004F09D112F0200F01D020229A
:101808009A60E9B22046FFF76BFDAAE74FF4004261
:101818009A60A6E704F57172002101F05DF99CE772
:101828000A31544F0A30544F38B5044603681D6CCA
:1018380003EB4111D1F8082B0E4B9D4207D901F556
:10184800306112F4004F02D04FF400438B60204601
:10185800FFF73EFD074B9D4202D92369012B01D0BA
:10186800002038BD04F571720121206801F034F9B7
:10187800F6E700BF0A30544F2DE9F84F04460568D3
:10188800284601F015F908B1BDE8F88F2F4606463D
:10189800206801F0DCF80028F6D0206801F0D7F8BD
:1018A80010F0020F04D02268536903F00203536159
:1018B800206801F0CCF810F0100F14D0226893695A
:1018C80023F010039361D5F8208008F00F09C8F3BE
:1018D8004343022B68D0062B00F088802268936966
:1018E80043F010039361206801F0B1F810F4002F61
:1018F80040F09080206801F0AAF810F4802F40F0A2
:10190800D480206801F0A3F80028C0F24281206842
:1019180001F09DF810F4006F0AD0D5F8083813F0DC
:10192800010F40F050812268536903F4006353614A
:10193800206801F08CF810F4805F40F0488120683E
:1019480001F085F810F4005F40F0A781206801F0ED
:101958007EF810F0080F40F0B881206801F077F8A1
:1019680010F4801F40F0BA81206801F070F810F47C
:10197800001F40F0BD81206801F069F810F0804F29
:1019880040F0C081206801F062F810F0040F3FF4C5
:101998007BAF23685D6815F0040F40F0BC812268B6
:1019A80053682B4353606FE747F6F07318EA030F49
:1019B80094D04FEAC90BABEB09034FEA830AA24460
:1019C8004FEA1818C8F30A02DAF80812284600F095
:1019D800A3FFC8F30A08DAF808324344CAF8083201
:1019E800DAF814324344CAF8143277E7082204F5C7
:1019F8007171284600F090FFC8F30A184FEAC9032E
:101A0800A3EB09018A002244D2F814324344C2F8F5
:101A1800143263E7206801F01EF88046B14617E0EB
:101A280007EB49130122C3F8082B49462046FFF764
:101A38007BFE1DE007EB49130822C3F8082B494633
:101A48002046FFF7F1FE16E009F101094FEA5808B0
:101A5800B8F1000F3FF44EAF18F0010FF4D05FFA61
:101A680089F1206801F007F8824610F0010FD7D1FC
:101A78001AF0080FDED11AF0100F04D007EB491343
:101A88001022C3F8082B1AF0200F04D007EB4913D3
:101A98002022C3F8082B1AF4005FD5D007EB4913AE
:101AA8004FF40052C3F8082BCEE7206800F0DBFFA4
:101AB8008046B1462AE059462046FFF71DFC1AF039
:101AC800080F04D007EB49130822C3F808291AF0B5
:101AD800100F04D007EB49131022C3F808291AF095
:101AE800400F04D007EB49134022C3F808291AF025
:101AF800020F04D007EB49130222C3F808291AF091
:101B0800800F41D109F101094FEA5808B8F1000FD7
:101B18003FF4F7AE18F0010FF4D05FFA89FB59468D
:101B2800206800F0B1FF824610F0010FC7D009F01D
:101B38000F03012101FA03F2D7F8343823EA02032C
:101B4800C7F8343807EB4913C3F8081923698B42DF
:101B5800B1D14FEAC902A2EB090293002344596CA0
:101B68009A6C0A449A64B9F1000FA4D1C9EBC9026E
:101B7800930023441B6D002B9DD104F57172012144
:101B8800206800F0A9FF96E749462046FFF7AFFC1A
:101B9800B8E7D5F8043823F00103C5F8043894F8F9
:101BA800F433012B08D02046FFF7E6FB226853697F
:101BB80003F000435361AAE6002184F8F413204699
:101BC80000F03AFAF2E72046FFF7BEFBABE605F570
:101BD8000068D8F8043023F00103C8F80430102155
:101BE800206800F029FB20E007EB46134FF67F3111
:101BF800C3F80819D3F8002922F40012C3F8002901
:101C0800D3F8002942F00062C3F80029C3F8081B82
:101C1800D3F8002B22F40012C3F8002BD3F8002BC2
:101C280042F00062C3F8002B01366368B342DBD888
:101C3800D8F81C3043F00113C8F81C30236BEBB103
:101C4800D8F8843043F00B03C8F88430D8F844300F
:101C580043F00B03C8F84430D5F8003823F4FE638A
:101C6800C5F8003804F57172217C206800F034FF53
:101C78002268536903F48053536160E6D8F814303E
:101C880043F4005343F02B03C8F81430D8F810304D
:101C980043F00B03C8F81030DEE7206800F00CFFB3
:101CA800206800F0BFFBE0602568FEF7FFFF227B9D
:101CB8000146284600F026FA2046FFF72EFB226848
:101CC800536903F40053536140E62046FFF71FFBB6
:101CD8002268536903F0080353613EE60021204659
:101CE800FFF756FB2268536903F4801353613BE600
:101CF80000212046FFF746FB2268536903F40013CE
:101D0800536138E62046FFF749FB2268536903F020
:101D18008043536136E62046FFF746FB3FE690F8DE
:101D2800BC33012B0DD010B50446012380F8BC3319
:101D380080F83810006800F05EFE002084F8BC03CC
:101D480010BD02207047F8B511F0800F28D101F0BE
:101D58000F06F500AF1BBC00274604F5FC740444CD
:101D680004343E460644002586F8FD5101F00F0173
:101D78002170A260E370627802B1E180022B1ED06C
:101D880090F8BC33012B1DD00546012380F8BC33E5
:101D98002146006800F057FB002085F8BC03F8BD19
:101DA80001F00F06F500AF1BBC0027463834044489
:101DB80004343E460644012586F83D50D6E7002304
:101DC8002371DDE70220EAE738B511F0800F21D151
:101DD80001F00F05EA00541BA3001C4603F5FC7331
:101DE8000344043325460544002285F8FD2101F00B
:101DF8000F01197090F8BC23012A1AD00446012259
:101E080080F8BC231946006800F068FB002084F8BD
:101E1800BC0338BD01F00F04E200151BAB001D46E2
:101E28003833034404332C460444012284F83D200B
:101E3800DDE70220EDE770B501F00F05EE00711B3C
:101E48008C0004F5FC740444211D761BB400044482
:101E5800C4F80822C4F810320023C4F8143284F8F5
:101E6800FD3184F8FC510369012B06D065B1DAB263
:101E7800006800F043FC002070BDC5EBC506B40047
:101E88000444C4F80C22F1E7DAB2006800F094FBCD
:101E9800F1E701F00F01C1EBC1018B001844D0F844
:101EA8001402704770B501F00F05EE00711B8C002D
:101EB80038340444211D761BB4000444A26423650D
:101EC80000236365012384F83D3084F83C5003699E
:101ED800012B06D05DB1DAB2006800F00FFC0020DB
:101EE80070BDC5EBC506B4000444E264F2E7DAB29B
:101EF800006800F061FBF2E738B501F00F054368B0
:101F08009D4236D811F0800F20D1CA00541AA30080
:101F18001C4603F5FC7303440433224602440021A3
:101F280082F8FD1101229A701D7090F8BC23012AD5
:101F380021D00446012280F8BC231946006800F02D
:101F4800FFFC7DB1002084F8BC0313E0EA00511BBC
:101F58008B0019463833034404330144012281F8C5
:101F68003D20DFE704F57172217C206800F0B4FDA4
:101F7800E8E7012038BD0220FCE710B501F00F04A6
:101F880043689C422CD811F0800F1DD1E3001A1B26
:101F980091000A4601F5FC71014404310244002312
:101FA80082F8FD3100238B700C7090F8BC33012B44
:101FB80018D00446012380F8BC33006800F0EDFC1B
:101FC800002084F8BC030CE0E3001A1B91000A46C9
:101FD8003831014404310244012382F83D30E1E7FD
:101FE800012010BD0220FCE730B40468606A29B102
:101FF8000D46A36A00EB134000230CE040EA0240C0
:10200800A06212E003F1400104EB8101496800EB92
:1020180011400133DBB2691E8B42F3D340EA024020
:1020280005F13F0104EB81014860002030BC704796
:10203800036859620020704770470000002301338D
:102048000C4A934211D80269002AF8DA036943F06E
:102058000103036100230133064A934207D802694A
:1020680012F0010FF7D100207047032070470320BA
:10207800704700BF400D030084B010B5044603A8A4
:1020880080E80E00089B012B1FD1A36B23F480333B
:10209800A363E36823F4840323F04003E360E36865
:1020A80023F44013E3600F9B012B09D02046FFF770
:1020B800C5FF069B012B1BD0BDE8104004B070473C
:1020C800E36843F48013E360F0E7E36843F0400318
:1020D800E3602046FFF7B2FF0C9B23B9A36B43F4E0
:1020E8008033A363E5E7A36B23F48033A363E0E7BE
:1020F800A36843F00603A360A36843F02003A3602A
:10210800DAE70000022A0AD00921C26822F47052D4
:10211800C260C36843EA8123C360002070472A4B2A
:102128000B442A4A93423FD9294B0B44294A9342EC
:102138003CD9A1F57403A3F51053274A934237D924
:10214800A1F18373A3F5E74302F5C332A0329342AA
:1021580030D9224B0B44224A93422DD9214B0B44B0
:1021680002F5922202F57872934227D91E4B0B444E
:1021780002F5C32202F52072934221D9A1F1B77367
:10218800A3F5585302F5B71202F55872934219D9BC
:10219800164B0B4402F5122202F5F862934201D95C
:1021A8000621B2E70721B0E70F21AEE70E21ACE721
:1021B8000D21AAE70C21A8E70B21A6E70A21A4E72D
:1021C8000921A2E70821A0E7405327FFFF340C00AC
:1021D800401E1BFF3F420F007F4F120060B6E5FE16
:1021E8005FE3160000D3CEFEC05BB3FEE05459FE99
:1021F800836843F00103836000207047836823F0FD
:10220800010383600020704708B5C36823F0C0430A
:10221800C360012909D069B9C36843F08043C3602A
:102228003220FEF7F9FE002008BDC36843F00053D2
:10223800C360F5E70120F7E7890141F0200101615A
:1022480000230133054A934205D8026912F0200F92
:10225800F7D1002070470320704700BF400D0300EE
:102268001023036100230133054A934205D802690C
:1022780012F0100FF7D1002070470320704700BFFD
:10228800400D0300D0F800381943C0F800180020AA
:102298007047000084B02DE9F041044607A880E8A3
:1022A8000E002546002306E003F1400204EB8202FB
:1022B8000021516001330E2BF6D9119B23BBD4F8B2
:1022C800043843F00203C4F80438A36B43F4001342
:1022D800A363A36B23F40023A363A36B23F48023DA
:1022E800A3630023C4F8003E04F50066D4F8003860
:1022F800C4F800380C9B012B14D1099B6BB9002141
:102308002046FFF7BFFF11E0A36B23F40013A3637C
:10231800A36B43F40023A363E3E701212046FFF7FF
:10232800B1FF03E003212046FFF7ACFF1021204650
:10233800FFF782FF804608B14FF001082046FFF7FB
:102348008FFF08B14FF00108002333617361F36117
:102358000AE0C3B94FF00060C2F8000900220A6120
:102368004FF67F328A6001330799994210D905EBFD
:10237800431202F51061D2F800090028E9DB0020B9
:10238800C2F80009EAE74FF09040C2F80009E5E713
:1023980000230AE0BBB14FF09047C2F8007B00224F
:1023A80002614FF67F3282600133994210D905EB02
:1023B800431202F53060D2F8007B002FEADB0027D9
:1023C800C2F8007BEBE74FF00067C2F8007BE6E756
:1023D800336923F4807333610023A3616FF0804372
:1023E80063610A9B1BB9A36943F01003A361A26947
:1023F8000B4B1343A3610D9B1BB1A36943F0080367
:10240800A361119B012B04D04046BDE8F04104B004
:102418007047A36943F0804343F00403A361F3E7E3
:1024280000383C80D0F8083813F0060307D0022B98
:1024380007D0062B01D00F207047022070470020DC
:1024480070470220704770B40B784A78012A22D06E
:10245800D0F81C2803F00F060124B44042EA0442D5
:10246800C0F81C2800EB4310D0F8003B13F4004FD1
:102478000ED1D0F8003B8A68C2F30A02C97842EA52
:102488008142134343F0805343F40043C0F8003BB8
:10249800002070BC7047D0F81C4803F00F06B2400B
:1024A80092B22243C0F81C2800EB4310D0F8002950
:1024B80012F4004FECD1D0F800298C68C4F30A0458
:1024C800C97844EA814444EA8353134343F0805370
:1024D80043F40043C0F80039DAE7000030B40B7861
:1024E8004A78012A24D000EB4313D3F8002B002AA2
:1024F80050DBD0F83C580A7802F00F02012404FAA5
:1025080002F225EA0242C0F83C28D0F81C280978D3
:1025180001F00F018C4022EA0444C0F81C48D3F8AB
:10252800001B234A0A40C3F8002B002030BC704728
:1025380000EB4313D3F80029002A1EDBD0F83C58DF
:102548000A7802F00F02012404FA02F292B225EA94
:102558000202C0F83C28D0F81C28097801F00F01C5
:102568008C40A4B222EA0404C0F81C48D3F800192D
:10257800104A0A40C3F80029D7E7D3F8002942F0E7
:102588000062C3F80029D3F8002942F08042C3F85A
:102598000029D3E7D3F8002B42F00062C3F8002BE0
:1025A800D3F8002B42F08042C3F8002BA1E700BF0C
:1025B8000078F3EF007833EC70B40B784C78012C8A
:1025C80026D000EB431000F530631C69E40CE404EA
:1025D8001C611C6924F0FF5424F4C0141C614C696C
:1025E8000CB18C684C611C6944F400241C611C69A2
:1025F8008D68C5F312052C431C61012A65D0D0F8FB
:10260800003B43F00443C0F8003B002070BC704717
:102618004C696CBB00EB4314D4F8105925F0FF55F6
:1026280025F4C015C4F81059D4F8105945F40025FC
:10263800C4F81059D4F81059ED0CED04C4F8105929
:10264800012A33D000EB4313D3F8002942F00442A7
:10265800C3F800294B69002BD7D0D0F83428097863
:1026680001F00F040121A1400A43C0F83428CCE747
:1026780000EB431404F510642569ED0CED042561A5
:10268800256925F0FF5525F4C01525614E698D682B
:10269800AE4200D94D61256945F4002525612569BB
:1026A8004E69C6F3120635432561C9E70A691AB1AE
:1026B80000EB4311C1F8142900EB4310D0F80029AE
:1026C80042F00442C0F800299FE7CA68002A96D061
:1026D8005A6194E770B49DF80C4064B903339D08BF
:1026E80007E000EB023303F5805351F8046B1E60DA
:1026F8000134AC42F5D3002070BC7047F0B583B00C
:102708000B784C78012C2BD000EB431303F5306485
:102718002569ED0CED042561256925F0FF5525F4A3
:10272800C01525614D69002D40F0C58025698E686A
:10273800C6F3120635432561256945F40025256150
:10274800012A00F0CD80CA78012A00F0CF80D3F8A2
:10275800002B42F00442C3F8002B002003B0F0BD68
:102768004C6984BB00EB4314D4F8105925F0FF558D
:1027780025F4C015C4F81059D4F8105945F40025AB
:10278800C4F81059D4F81059ED0CED04C4F81059D8
:10279800012A4CD000EB4313D3F8004944F0044419
:1027A800C3F80049CC78012C6AD04B69002BD4D0EF
:1027B800D0F83428097801F00F040121A1400A4318
:1027C800C0F83428C9E700EB4314D4F81059ED0CCD
:1027D800ED04C4F81059D4F8105925F0FF5525F424
:1027E800C015C4F81059D4F810694D698F683D4474
:1027F800013DB5FBF7F5474F07EAC5453543C4F832
:102808001059D4F810594E69C6F312063543C4F866
:10281800105904F51064CD78012DB9D1256925F03A
:10282800C0452561256945F000552561B0E70A696D
:102838001AB100EB4314C4F81429CA78012A08D045
:1028480000EB4313D3F8002942F00442C3F80029EF
:1028580083E7D0F8082812F4807F08D100EB4311F1
:10286800D1F8002942F00052C1F80029E8E700EB4E
:102878004311D1F8002942F08052C1F80029DFE75E
:10288800D0F8084814F4807F0ED1D3F8004944F0FA
:102898000054C3F8004914460B46C9681A789B8A45
:1028A8000094FFF717FF58E7D3F8004944F0805425
:1028B800C3F80049EFE78E683544013DB5FBF6F5EE
:1028C8002669144F07EAC5473E43266127698E6883
:1028D800ADB206FB05F5C5F312053D4325612FE7AB
:1028E800CA68002A3FF42FAF62612CE7D0F80828A5
:1028F80012F4807F06D1D3F8002B42F00052C3F8BF
:10290800002B24E7D3F8002B42F08052C3F8002BA9
:102918001DE700BF0000F81F03329208002393420E
:102928000CD210B400F58054246841F8044B0133EC
:102938009342F7D308465DF8044B70470846704742
:102948000B784A78012A14D000EB4310D0F8002BFA
:10295800002A06DB2BB1D0F8003B23F08043C0F8F7
:10296800003BD0F8003B43F40013C0F8003B0020C4
:10297800704700EB4310D0F80029002A06DB2BB182
:10298800D0F8003923F08043C0F80039D0F8003976
:1029980043F40013C0F80039E9E70B784A78012AB4
:1029A8000ED000EB4310D0F8003B23F40013C0F81E
:1029B800003BCB78023BDBB2012B15D900207047D6
:1029C80000EB4310D0F8003923F40013C0F80039A5
:1029D800CB78023BDBB2012BF0D8D0F8003943F0BA
:1029E8008053C0F80039E9E7D0F8003B43F0805342
:1029F800C0F8003BE2E7D0F8003823F4FE63C0F8E3
:102A08000038D0F80038090101F4FE610B43C0F822
:102A1800003800207047D0F8003E23F00303C0F8C8
:102A2800003ED0F8043823F00203C0F80438002030
:102A38007047D0F8003E23F00303C0F8003ED0F8FA
:102A4800043843F00203C0F8043800207047426994
:102A5800806910407047D0F8183800F50060C069E8
:102A68001840000C7047D0F8183800F50060C069AD
:102A7800184080B2704700EB4111D1F8082B00F5DF
:102A8800006040691040704710B4D0F81048D0F882
:102A9800343801F00F02D340DB01DBB2234300EBF3
:102AA800411000F51060806818405DF8044B7047CD
:102AB800406900F001007047D0F8003923F4FF6343
:102AC80023F00703C0F80039D0F8043843F48073C2
:102AD800C0F804380020704710B4046C154B9C42B1
:102AE80003D9D0F8003B002B16DB0024C0F8104BAC
:102AF800D0F8104B44F40024C0F8104BD0F8104B19
:102B080044F01804C0F8104BD0F8104B44F0C044FF
:102B1800C0F8104B012903D000205DF8044B704722
:102B2800C0F8142BD0F8003B43F08023C0F8003BDA
:102B3800F2E700BF0A30544FC0B108B50346D0F8D9
:102B4800B80210B10020C3F8B802D3F8CC0210B113
:102B58000020C3F8CC0209B1C3F8B4121846012307
:102B680080F89C320270FEF725FC08BD03207047F0
:102B780010B582B00023ADF8063059B10446C4F848
:102B8800B8128B6A0DF106009847C4F8CC020020F1
:102B980002B010BD0320FBE708B5FEF765FC08BDD1
:102BA80008B5D0F8B83213B11B68984708BD0320A0
:102BB800FCE708B5D0F8B8320BB15B68984700203D
:102BC80008BD38B5044600F2AA25284600F02DF9BC
:102BD8000123C4F89432B4F8B032C4F8983294F8A7
:102BE800AA1201F01F03012B0DD03BB1022B0FD00D
:102BF80001F080012046FEF752FC03E029462046FA
:102C080000F0CFFA38BD2946204600F005FBF9E769
:102C18002946204600F034FBF4E710B5044629BBEA
:102C28001346D0F89422032A01D0002029E0D0F8D6
:102C38005C11D0F8602191420DD8D0F8B8321B69E8
:102C480023B190F89C22032A00D19847204600F02F
:102C580060FC002015E0891AC0F85C118A4228BF80
:102C68000A46194600F04DFC00200AE00A46D0F852
:102C7800B8329B6933B190F89C12032904D11146EC
:102C8800984710BD0320FCE70320FAE710B5044677
:102C9800002946D11346D0F89422022A05D094F888
:102CA800A032012B39D0002046E0C269016A8A426D
:102CB80013D88A421DD0D4F8B832DB682BB194F807
:102CC8009C22032A01D12046984780212046FEF7FE
:102CD800E6FB204600F028FCE1E7521AC2611946DB
:102CE80000F0F8FB00231A4619462046FEF7F7FBCA
:102CF800D5E783699942DED8D0F898229342DAD290
:102D08000022114600F0E6FB0021C4F898120B4699
:102D18000A462046FEF7E3FBC1E7002084F8A0023C
:102D28000AE00A46D0F8B8325B6933B190F89C12D1
:102D3800032904D11146984710BD0320FCE703205E
:102D4800FAE770B50446012380F89C320023C0F8E6
:102D580094324360C0F8A432D0F8BC3223B1D0F822
:102D6800B8325B680021984740230022114620466C
:102D7800FEF782FB0126A4F864614025C4F860517F
:102D88002B46002280212046FEF776FBA68425628A
:102D9800002070BD01740020704790F89C3280F8C4
:102DA8009D32042380F89C320020704790F89C32B2
:102DB800042B01D00020704790F89D3280F89C3297
:102DC800F8E708B590F89C32032B01D0002008BD25
:102DD800D0F8B832DB69002BF8D09847F6E7002026
:102DE8007047002070470020704708B5012380F81D
:102DF8009C32D0F8B83213B15B680179984700204B
:102E080008BD002302E00133DBB201300278002A5A
:102E1800F9D11846704708B54B88012B00D008BD7A
:102E2800C0F8A43200F075FBF9E70B7803704B7813
:102E380043708B78CA7843EA022343800B794A7936
:102E480043EA022383808B79CA7943EA0223C38049
:102E5800704710B504468021FEF721FB002120466B
:102E6800FEF71DFB10BD30B583B004460D460023A8
:102E7800ADF806304A88130A013B062B00F2AB80F6
:102E8800DFE803F0041F33A9A98D9A00D0F8B43203
:102E98001B680DF10601007C9847EA88002A00F0BB
:102EA800A380BDF80630002B00F099809A4228BF15
:102EB8001A46ADF806200146204600F0FEFA03B097
:102EC80030BD037C43B9D0F8B8329B6A0DF10600D7
:102ED800984702234370E0E7D0F8B832DB6A0DF177
:102EE8000600984702234370D7E7D2B2052A52D882
:102EF800DFE802F003101D2A3744D0F8B4325B68CB
:102F080023B10DF10601007C9847C6E72946FFF773
:102F1800A0FFD4E7D0F8B4329B6823B10DF10601C5
:102F2800007C9847B9E72946FFF793FFC7E7D0F831
:102F3800B432DB6823B10DF10601007C9847ACE799
:102F48002946FFF786FFBAE7D0F8B4321B6923B1E8
:102F58000DF10601007C98479FE72946FFF779FFA6
:102F6800ADE7D0F8B4325B6923B10DF10601007CFE
:102F7800984792E72946FFF76CFFA0E7D0F8B432EC
:102F88009B6923B10DF10601007C984785E7294626
:102F9800FFF75FFF93E72946FFF75BFF8FE7037CA7
:102FA80033B9D0F8B8325B6B0DF10600984774E777
:102FB8002946FFF74EFF82E7037C43B9D0F8B832C1
:102FC8001B6B0DF1060098470723437065E72946F8
:102FD800FFF73FFF73E72946FFF73BFF6FE72946F7
:102FE8002046FFF736FF6AE7204600F092FA66E7C8
:102FF80038B504468B88F3B9CB88E3B94B887F2B67
:1030080019D803F07F0590F89C32032B0CD080F878
:103018009E522946FEF753FA204600F07AFA35B157
:10302800022384F89C3209E0FFF713FF06E001232E
:1030380084F89C3202E02046FFF70BFF38BD000001
:1030480070B504460D4689782E4B197001290FD8A2
:1030580090F89C32022B11D0032B25D02946FFF77C
:10306800F8FE284B19782046FFF7A3FD032603E056
:103078002946FFF7EEFE0326304670BD81B1416058
:10308800FFF78EFD064620B129462046FFF7E1FEF0
:10309800F2E7204600F03DFA032384F89C32EBE780
:1030A80000F037FA0026E7E7C9B14368994225D00E
:1030B800D9B2FFF77EFD134B197861602046FFF700
:1030C8006FFD0646B0B129462046FFF7C2FE2179BA
:1030D8002046FFF76EFD022384F89C32CCE70223DA
:1030E80080F89C324160FFF764FD204600F011FA39
:1030F8000026C1E7204600F00CFABDE700F009FA07
:103108000026B9E70002002008B5CB88012B0BD1B7
:1031180090F89C329BB1022B09D9032B0FD10122C5
:10312800011D00F0CAF901E0FFF793FE08BD014652
:10313800002341F8083F012200F0BFF9F6E7FFF746
:1031480088FEF3E708B590F89C32013B022B12D8B1
:10315800CB88022B0CD10123C360D0F8A4320BB169
:103168000323C360022200F10C0100F0A6F908BD98
:10317800FFF76FFEFBE7FFF76CFEF8E708B590F87E
:103188009C32013B022B09D84B88012B00D008BD8B
:103198000023C0F8A43200F0BCF9F8E7FFF759FEA5
:1031A800F5E708B50B7803F06003202B06D0402B19
:1031B80004D043B1FFF74DFE002003E0D0F8B83249
:1031C8009B68984708BD4B78092B21D8DFE803F0A6
:1031D800141C201820090520100DFFF744FE0020BC
:1031E800F0E7FFF705FF0020ECE7FFF729FFE9E725
:1031F800FFF78AFF0020E5E7FFF7A4FF0020E1E7DB
:10320800FFF709FE0020DDE7FFF7B8FF0020D9E748
:10321800FFF71FFE0020D5E770B505460C460B7872
:1032280003F06003202B07D0402B05D023B1FFF714
:1032380010FE0026304670BD95F89C32013B022BEB
:1032480018D82379012B0FD8D5F8B8329B682146B6
:10325800284698470646E388002BEBD10028E9D199
:10326800284600F056F9E5E721462846FFF7F1FD24
:103278000026DFE721462846FFF7EBFD0026D9E7C1
:1032880038B505460C468A880B7803F06003202B76
:1032980008D0D1B2402B05D05BB12146FFF7D9FD4C
:1032A800002005E0D5F8B8329B68214628469847A3
:1032B80038BD6378012B2FD0002B5ED0032B40F054
:1032C800D98090F89C32022B06D0032B15D02146CA
:1032D800FFF7BFFD0020EBE709B1802905D12146A2
:1032E8002846FFF7B6FD0020E2E7FEF7D8F8802170
:1032F8002846FEF7D4F80020DAE7638823B919B125
:10330800802901D0E38823B1284600F002F9002083
:10331800CEE7FEF7C4F8F7E790F89C32022B06D008
:10332800032B15D02146FFF794FD0020C0E709B113
:10333800802905D121462846FFF78BFD0020B7E7F5
:10334800FEF7ADF880212846FEF7A9F80020AFE780
:103358006388002B40F0938011F07F0F0AD1284634
:1033680000F0D7F8D5F8B8329B6821462846984728
:1033780000209DE7FEF79BF8F1E790F89C32022BBE
:1033880006D0032B2AD02146FFF763FD00208FE7E4
:1033980009B1802913D112F0800F15D101F07F01F6
:1033A80001EB81018B0003F5A87129440431002445
:1033B8000C600222284600F080F8204678E7214673
:1033C800FFF747FD002073E701F07F0101EB810162
:1033D8008B0003F1100129440431E8E752B2002AB6
:1033E8001FDB01F00F0303EB830398002844B0F8B8
:1033F80064312BB3002A29DB01F07F0202EB820241
:10340800930003F5A8742C44043409B1802927D10A
:103418000023236002222146284600F04EF80020AF
:1034280046E701F00F0303EB830398002844838CDD
:10343800002BDFD121462846FFF70BFD002037E798
:1034480021462846FFF705FD002031E701F07F02FD
:1034580002EB8202930003F110042C440434D4E7F5
:103468002846FDF7DBFF10B101232360D2E70023D4
:103478002360CFE72146FFF7ECFC002018E7002087
:1034880016E7C8B170B50D4616460446FFF7B9FCF5
:10349800013040003080287003236B70022307E05E
:1034A800EA5401345A1CD2B20021A9540233DBB2C7
:1034B8002278002AF4D170BD704710B51346022255
:1034C800C0F894228361C3610A460021FDF7FFFF1B
:1034D800002010BD08B513460A460021FDF7F7FF86
:1034E800002008BD10B513460322C0F89422C0F886
:1034F8005831C0F85C310A460021FDF7F0FF002082
:1035080010BD08B513460A460021FDF7E8FF002064
:1035180008BD08B50423C0F8943200231A4619469A
:10352800FDF7D5FF002008BD08B50523C0F8943283
:1035380000231A461946FDF7D2FF002008BD10B532
:10354800D0F8BC42D0F8C0325BB194F80002FF2832
:1035580007D09B6894F8012221469847FF2384F8F6
:103568000032002010BD000043230380004870474C
:10357800A80000204323038000487047EC00002087
:1035880043230380004870473C0100200A2303803E
:10359800004870473001002038B5D0F8BC5275B1EA
:1035A8000446FDF752FFC5F80C02D4F8C032DB68B8
:1035B80005F50371D5F804029847002038BD0320AB
:1035C800FCE770B5D0F8C442D0F8BC5255B301EB53
:1035D8008102930003449B696BB90024C5F8144227
:1035E800D0F8C0321B690A4605F50471D5F80802FF
:1035F8009847204670BDC1EBC106B2001444646C04
:10360800B3FBF4F204FB1233002BE6D101EB810289
:103618009300034400249C6123462246FDF757FF8C
:103628002046E7E70320E5E770B582B005460C467B
:10363800D0F8BC6200238DF80730ADF804300B7861
:1036480013F0600227D0202A5BD1CA883AB9D0F893
:10365800C0329B68002248789847002054E013F055
:10366800800F0CD0D0F8C0329B68314660789847FC
:10367800E28831462846FFF720FF002044E04B78D7
:1036880086F800328B7986F80132CA883146FFF70E
:1036980029FF002038E04B780B2B2ED8DFE803F009
:1036A80006362D2D2D2D2D2D2D2D142390F89C32E1
:1036B800032B05D1022201A9FFF7FFFE002023E01A
:1036C800FFF7C7FB03201FE090F89C32032B06D1BD
:1036D80001220DF10701FFF7F0FE002014E0FFF7CB
:1036E800B8FB032010E090F89C32032B01D1002096
:1036F8000AE0FFF7AEFB032006E0FFF7AAFB032072
:1037080002E0FFF7A6FB032002B070BD0020FBE734
:1037180038B504468121FDF7BAFE00252587012129
:103728002046FDF7B4FEA4F8785182212046FDF723
:10373800AEFEA4F84C50A4F84E50D4F8BC324BB1AD
:10374800D4F8C0325B689847D4F8BC0200F004F99A
:10375800C4F8BC52002038BD70B504464FF4077059
:1037680000F0F2F8B0B30546C4F8BC02237CB3BB42
:103778004FF40073022281212046FDF77DFE0126C9
:1037880026874FF40073022231462046FDF774FE67
:10379800A4F878611023A4F84E300823032282216C
:1037A8002046FDF769FE0123A4F84C30D4F8C03256
:1037B8001B6898470023C5F81432C5F81832237CD3
:1037C8000BB34023D5F8042201212046FDF787FEDC
:1037D800002070BD0023C4F8BC320220F9E7402362
:1037E800022281212046FDF747FE01262687402335
:1037F800022231462046FDF73FFEA4F878611023E7
:10380800A4F84E30C9E74FF40073D5F8042201211B
:103818002046FDF764FE0020DBE719B1C0F8C012AE
:103828000020704703207047D0F8BC32C3F8081254
:10383800C3F8102200207047D0F8BC32C3F8041235
:1038480000207047D0F8BC22A2B108B5D2F81432D3
:103858000BB1012008BD0123C2F81432D2F810328E
:10386800C362D2F81032D2F808228121FDF72FFE68
:103878000020EFE703207047D0F8BC229AB108B5C2
:10388800037C3BB14023D2F804220121FDF727FE37
:10389800002008BD4FF40073D2F804220121FDF77F
:1038A8001EFE0020F5E7032070470000DFF834D043
:1038B800002103E00C4B5B58435004310B480C4B80
:1038C80042189A42F6D30B4A02E0002342F8043B1E
:1038D800094B9A42F9D3FDF7B3FB00F011F8FCF756
:1038E80043FE704700000220903B000800000020C3
:1038F800E4010020E4010020F01A0020FEE70000A7
:1039080070B50D4E0D4CA41BA4100025A54209D17D
:103918000B4E0C4C00F0F8F8A41BA4100025A5428F
:1039280005D170BD56F8253098470135EEE756F8B1
:10393800253098470135F2E7883B0008883B0008A6
:10394800883B00088C3B0008024B0146186800F0D1
:1039580061B800BF80010020024B0146186800F0E2
:103968000BB800BF8001002002440346934200D1F7
:10397800704703F8011BF9E738B50546002945D01B
:1039880051F8043C0C1F002BB8BFE41800F0ACF849
:103998001F4A1368104633B9636014602846BDE8AF
:1039A800384000F0A2B8A3420CD9216862189342AB
:1039B80004BF1A685B68636004BF52182260046021
:1039C800ECE713465A680AB1A242FAD9196858189E
:1039D800A0420BD120680144581882421960DDD1F9
:1039E800106852685A6001441960D7E702D90C235D
:1039F8002B60D3E7206821188A4204BF11685268F7
:103A0800626004BF091821605C60C7E738BD00BF69
:103A18000402002070B5CD1C25F0030508350C2DD7
:103A280038BF0C25002D064601DBA94203D90C231B
:103A38003360002070BD00F057F8214A1468214611
:103A480091B9204C23681BB9304600F03DF820603E
:103A58002946304600F038F8431C24D10C23336043
:103A6800304600F042F8E4E70B685B1B18D40B2BD8
:103A78000FD90B60CD50CC18304600F036F804F161
:103A88000B00231D20F00700C31AD3D05A42E2507E
:103A9800D0E78C424B6816BF636013600C46EBE7B7
:103AA8000C464968CCE7C41C24F00304A04205D0A6
:103AB800211A304600F008F80130CFD02560DBE746
:103AC800040200200802002038B5064C00230546F1
:103AD8000846236000F00AF8431C02D1236803B1AA
:103AE8002B6038BDEC1A002070477047044A05491E
:103AF8001368002B08BF0B4618441060184670471F
:103B08000C020020F01A0020F8B500BFF8BC08BC71
:103B18009E467047F8B500BFF8BC08BC9E46704783
:103B28000000000000000000010203040607080965
:103B380043444320436F6E66696700004344432053
:103B4800496E7465726661636500000053544D697F
:103B580063726F656C656374726F6E69637300007E
:103B680053544D3332205669727475616C20436F1B
:083B78006D506F727400000033
:083B800078C6FF7F0100000080
:043B8800AD01000883
:043B8C0089010008A3
:103B900001000000100000000024F400B91000082B
:103BA000C510000875110008511100083D110008EA
:103BB00091110008B5110008120100020202004034
:103BC00083044057000201020301000004030904BA
:103BD0001A030000000000000000000000000000C8
:103BE00000000000000000000000000001120008BA
:103BF000D9110008DD110008E5110008E1110008E5
:103C0000613700081937000831360008000000004D
:103C100047350008CB350008A1350008000000003A
:103C200000000000000000007D350008713500082C
:103C3000893500089535000809024300020100C0DB
:103C400032090400000102020100052400100105F0
:103C50002401000104240202052406000107058254
:103C60000308001009040100020A00000007050112
:103C700002400000070581024000000009024300E5
:103C8000020100C032090400000102020100052403
:103C9000001001052401000104240202052406008D
:103CA000010705820308001009040100020A000050
:103CB0000007050102000200070581020002000062
:103CC0000A0600020000004001000000090743004E
:103CD000020104C0320904000001020201000524AF
:103CE000001001052401000104240202052406003D
:103CF000010705820308001009040100020A000000
:103D00000007050102400000070581024000000095
:103D100084010020000000000000000000000000FE
:103D20000000000000000000000000000000000093
:103D30000000000000000000000000000000000083
:103D40000000000000000000000000000000000073
:103D50000000000000000000000000000000000063
:103D60000000000000000000000000000000000053
:043D7000000000004F
:04000005080038B502
:00000001FF
