:020000040800F2
:100000000000022015160008BD060008BF06000803
:10001000C1060008C3060008C5060008000000006D
:10002000000000000000000000000000C7060008FB
:10003000C906000800000000CB060008CD06000835
:1000400065160008651600086516000865160008A4
:100050006516000865160008651600086516000894
:100060006516000865160008651600086516000884
:100070006516000865160008651600086516000874
:100080006516000865160008651600086516000864
:100090006516000865160008651600086516000854
:1000A0006516000865160008651600086516000844
:1000B0006516000865160008651600086516000834
:1000C0006516000865160008651600086516000824
:1000D00065160008D50600086516000865160008B4
:1000E0006516000865160008651600086516000804
:1000F00065160008651600086516000865160008F4
:1001000065160008651600086516000865160008E3
:1001100065160008651600086516000865160008D3
:1001200065160008651600086516000865160008C3
:1001300065160008651600086516000865160008B3
:1001400065160008651600086516000865160008A3
:100150006516000865160008651600086516000893
:100160006516000865160008651600086516000883
:1001700065160008651600086516000800000000F6
:08018000651600086516000871
:1001880010B5054C237833B9044B13B10448AFF3C9
:1001980000800123237010BD0C0000200000000027
:1001A800C016000808B5034B1BB103490348AFF359
:1001B800008008BD0000000010000020C0160008E4
:1001C80053B94AB9002908BF00281CBF4FF0FF31B6
:1001D8004FF0FF3000F072B9ADF1080C6DE904CEB4
:1001E80000F006F8DDF804E0DDE9022304B070470A
:1001F8002DE9F047089E04468846002B4BD18A42D9
:10020800154667D9B2FA82F24AB1C2F1200701FA5B
:1002180002F320FA07F7954047EA030894404FEAAB
:10022800154E230CB8FBFEF71FFA85FC0EFB17884A
:1002380043EA084307FB0CF1994209D9EB1807F187
:10024800FF3080F01B81994240F21881023F2B4415
:100258005B1AA4B2B3FBFEF00EFB103344EA03446E
:1002680000FB0CFCA44509D92C1900F1FF3380F0E0
:100278000781A44540F2048102382C4440EA074033
:10028800A4EB0C0400271EB1D4400023C6E90043A8
:100298003946BDE8F0878B4209D9002E00F0EB8083
:1002A8000027C6E9000138463946BDE8F087B3FAA9
:1002B80083F7002F47D18B4202D3824200F2FA80A3
:1002C800841A61EB030301209846002EE0D0C6E9AA
:1002D8000048DDE702B9FFDEB2FA82F2002A40F0F8
:1002E8008F80491B4FEA154E1FFA85F80127B1FB8D
:1002F800FEFC230C0EFB1C1143EA014308FB0CF126
:10030800994207D9EB180CF1FF3002D2994200F25A
:10031800CD808446591AA3B2B1FBFEF00EFB10142F
:1003280043EA044408FB00F8A04507D92C1900F15A
:10033800FF3302D2A04500F2B6801846A4EB0804A9
:1003480040EA0C409FE7C7F1200CBB4022FA0CFEA4
:100358004EEA030E01FA07F420FA0CF521FA0CF321
:100368004FEA1E482543B3FBF8F92C0C08FB193358
:100378001FFA8EFA44EA034309FB0AF49C4202FA84
:1003880007F200FA07F10BD91EEB030309F1FF305E
:1003980080F087809C4240F28480A9F1020973446E
:1003A8001B1BADB2B3FBF8F008FB103345EA03445E
:1003B80000FB0AFAA24508D91EEB040400F1FF333A
:1003C8006BD2A24569D90238744440EA0940A0FBBF
:1003D8000289A4EB0A044C45C2464B4654D351D07B
:1003E800002E69D0B1EB0A0564EB030404FA0CFC97
:1003F800FD40FC404CEA0505C6E90054002747E7E4
:10040800C2F1200320FA03F7954001FA02F021FA1D
:1004180003F34FEA154E3843010CB3FBFEF71FFAFE
:1004280085F80EFB173341EA034107FB08F38B42BB
:1004380004FA02F407D9691807F1FF3C2FD28B425E
:100448002DD9023F2944CB1A81B2B3FBFEF00EFB33
:10045800103341EA034100FB08F38B4207D96918BE
:1004680000F1FF3C17D28B4215D902382944C91A2A
:1004780040EA07473BE73746304609E70746E7E6DD
:100488001846FBE64145ABD2B8EB020A69EB0E020F
:1004980001381346A4E76046E9E7184695E767463A
:1004A800D1E781467CE702382C4447E7ACF1020CDF
:1004B8002B442FE7384608E73746E9E6704700BF80
:1004C80072B6FEE700B595B03022002108A801F009
:1004D800EBF8002303930493059306930793019382
:1004E800184A116C41F080511164126C02F080526C
:1004F8000192019A0293144A116841F480411160F3
:10050800126802F480420292029A022208920122A0
:100518000B9210220C920E9308A800F073FB68B996
:100528000F2303930021049105910691079103A8D5
:1005380000F0B2FD20B915B05DF804FBFFF7C0FF6D
:10054800FFF7BEFF003802400070004008B501F018
:100558000FF8FFF7B7FF00F01DF800F051F80C4C4A
:100568004FF40041204600F057FF4FF480412046E9
:1005780000F052FF4FF40051204600F04DFF4FF4B9
:100588008051204600F048FF642001F01DF8E6E79E
:10059800000C024030B589B00024039404940594FB
:1005A800069407940194144B1A6B42F008021A63DC
:1005B8001A6B02F008020192019A02941A6B42F037
:1005C80001021A631B6B03F001030293029B0B4D9C
:1005D80022464FF21001284600F018FF4FF2100390
:1005E8000393012304930594069403A9284600F075
:1005F80029FE09B030BD00BF00380240000C02409F
:1006080008B50A480A4B03604FF4E13343600023FE
:100618008360C36003610C2242618361C36100F09F
:10062800C7F900B908BDFFF74BFFFBE7280000201A
:100638000010014010B588B000230393049305937C
:1006480006930793026803F1804303F588339A42BF
:1006580001D008B010BD0024019403F594335A6CFE
:1006680042F010025A645A6C02F010020192019A88
:1006780002941A6B42F001021A631B6B03F0010328
:100688000293029B4FF4C063039302230493032352
:1006980006930723079303A9054800F0D3FD2246D4
:1006A8002146252000F0E6FE252000F017FFD0E7C0
:1006B80000000240FEE7FEE7FEE7FEE7FEE77047C0
:1006C8007047704708B500F06DFF08BD08B50248CF
:1006D80000F0FCF908BD00BF2800002082B000210E
:1006E80000910B4B5A6C42F480425A645A6C02F4E3
:1006F80080420092009A01911A6C42F080521A646A
:100708001B6C03F080530193019B02B0704700BF3C
:10071800003802400268D36823F49073D3600268FB
:10072800536923F001035361202380F83A3070475E
:1007380090F83930DBB2212B2AD18368B3F5805F7A
:1007480016D0036A5A1C02621A7803685A60C38C6E
:10075800013B9BB2C384EBB90268D36823F08003E2
:10076800D3600268D36843F04003D3600020704729
:10077800036A1B880268C3F30803536003691BB943
:10078800036A02330362E2E7036A01330362DEE7C6
:1007980002207047002070472DE9F04B044602689C
:1007A800136923F44053C1680B43136183680269DA
:1007B800134342691343C2691A430168CB6823F49F
:1007C800164323F00C031343CB600268536923F4E8
:1007D800407381690B435361C369B3F5004F3BD044
:1007E8000368714A934200F0AB8002F5806293423D
:1007F80000F0A68000F006FD4FF00009061849EB4E
:10080800090716EB000B47EB090C4FEACC0343EA48
:100818005B734FEACB0293469C4663689A009B0F32
:1008280010EB0B0049EB0C01FFF7CAFC5F4DA5FB71
:1008380000325109642202FB110213013233A5FB75
:1008480003235B0903F0F00202EB011203F00F032C
:10085800216813448B60A4E00368534A934239D05B
:1008680002F58062934235D000F0CCFC83464FF00D
:10087800000C06184CEB0C0716EB000847EB0C09AC
:100888004FEAC90343EA58734FEAC80290469946AB
:1008980062680021921841EB01031BEB08004CEB46
:1008A8000901FFF78DFC414DA5FB00325109642277
:1008B80002FB1102D3003233A5FB03235B095A0064
:1008C80002F4F87202EB011203F0070321681344E3
:1008D8008B6066E000F0A6FC80464FF00009061821
:1008E80049EB090716EB000B47EB090C4FEACC0361
:1008F80043EA5B734FEACB0293469C466268002149
:10090800921841EB010318EB0B0049EB0C01FFF7C0
:1009180057FC264DA5FB00325109642202FB110247
:10092800D3003233A5FB03235B095A0002F4F872A3
:1009380002EB011203F00703216813448B6030E0D7
:1009480000F070FC4FF00009061849EB090716EB98
:10095800000B47EB090C4FEACC0343EA5B734FEA01
:10096800CB0293469C4663689A009B0F10EB0B00E2
:1009780049EB0C01FFF724FC0C4DA5FB0032510993
:10098800642202FB110213013233A5FB03235B0926
:1009980003F0F00202EB011203F00F032168134485
:1009A8008B60BDE8F08B00BF001001401F85EB5144
:1009B80058B310B5044690F839300BB3242384F8A3
:1009C80039302268D36823F40053D3602046FFF7F8
:1009D800E3FE2268136923F4904313612268536984
:1009E80023F02A0353612268D36843F40053D36089
:1009F8000020E063202384F8393084F83A3010BDB1
:100A080080F83830FFF716FED8E7012070477047A6
:100A180008B50168CB6823F04003CB60202380F839
:100A28003930FFF7F4FF002008BD704708B590F88B
:100A38003A30DBB2222B45D18368B3F5805F0ED004
:100A4800036903BB03685A68836A591C81621A7078
:100A5800C38D013B9BB2C385F3B1002033E0826AAA
:100A6800036943B903685B68C3F308031380836AA7
:100A780002338362ECE703685B68DBB21380836A46
:100A880001338362E4E703685B68826A511C816210
:100A980003F07F031370DBE70268D36823F02003B9
:100AA800D3600268D36823F48073D3600268536903
:100AB80023F001035361202380F83A30FFF7B5FF94
:100AC800002000E0022008BD7047000010B5044671
:100AD80002681368D168526913F00F0005D113F04A
:100AE800200F02D011F0200F56D100286AD012F042
:100AF800010202D111F4907F64D013F0010F06D0E7
:100B080011F4807F03D0E06B40F00100E06313F044
:100B1800040F04D01AB1E06B40F00200E06313F058
:100B2800020F04D01AB1E06B40F00400E06313F048
:100B3800080F07D011F0200F00D11AB1E26B42F074
:100B48000802E263E26B002A48D013F0200F02D0BB
:100B580011F0200F24D123685B6903F04003E26B96
:100B680012F0080F00D13BB32046FFF7D3FD2368EE
:100B78005A6912F0400F1BD05A6922F040025A619C
:100B8800636B8BB11A4A1A65606B00F04EFC28B390
:100B9800606B036D984721E02046FFF747FF1DE093
:100BA8002046FFF743FFD6E72046FFF78DFF15E005
:100BB8002046FFF789FF11E02046FFF785FF002355
:100BC800E3630BE013F0800F02D011F0800F06D121
:100BD80013F0400F02D011F0400F04D110BD204691
:100BE800FFF7A6FDFAE72046FFF712FFF6E700BF7A
:100BF800FD0B000808B5806B0023C385C384FFF78D
:100C080063FF08BD002800F0E48170B582B0044697
:100C1800036813F0010F3BD0A74B9B6803F00C034C
:100C2800042B2CD0A44B9B6803F00C03082B21D079
:100C38006368B3F5803F4FD0B3F5A02F52D09E4BD9
:100C48001A6822F480321A601A6822F480221A6024
:100C58006368002B50D000F0B1FC0546964B1B682A
:100C680013F4003F14D100F0A9FC401B6428F5D907
:100C78000320B3E1904B5B6813F4800FD8D08E4B00
:100C88001B6813F4003F03D06368002B00F0A381B6
:100C9800236813F0020F55D0874B9B6813F00C0F95
:100CA8003ED0854B9B6803F00C03082B33D0E368D8
:100CB800002B68D0814B01221A6000F07FFC0546AA
:100CC8007D4B1B6813F0020F54D100F077FC401BDA
:100CD8000228F5D9032081E1774A136843F4803369
:100CE8001360B5E7744B1A6842F480221A601A68D8
:100CF80042F480321A60ABE700F060FC05466E4BA8
:100D08001B6813F4003FC3D000F058FC401B642854
:100D1800F5D9032062E1684B5B6813F4800FC6D1F4
:100D2800654B1B6813F0020F04D0E368012B01D058
:100D3800012053E1604A136823F0F803216943EA6C
:100D4800C1031360236813F0080F40D0636963B3CD
:100D58005B4B01221A6000F031FC0546564B5B6F75
:100D680013F0020F33D100F029FC401B0228F5D9FB
:100D7800032033E1504A136823F0F803216943EA5A
:100D8800C1031360DEE74D4B00221A6000F016FC29
:100D98000546494B1B6813F0020FD3D000F00EFC38
:100DA800401B0228F5D9032018E1454B00221A60A0
:100DB80000F004FC0546404B5B6F13F0020F06D0B1
:100DC80000F0FCFB401B0228F5D9032006E123684C
:100DD80013F0040F79D0384B1B6C13F0805F33D1BC
:100DE80000230193344B1A6C42F080521A641B6C36
:100DF80003F080530193019B0125324B1B6813F4C8
:100E0800807F23D0A368012B34D0052B38D02A4B00
:100E18001A6F22F001021A671A6F22F004021A6789
:100E2800A368002B36D000F0C9FB0646224B1B6F87
:100E380013F0020F48D100F0C1FB801B41F2883348
:100E48009842F3D90320C9E00025D6E71D4A136864
:100E580043F48073136000F0B1FB0646194B1B681E
:100E680013F4807FCED100F0A9FB801B0228F5D9AE
:100E78000320B3E0104A136F43F001031367CFE771
:100E88000D4B1A6F42F004021A671A6F42F0010202
:100E98001A67C5E700F092FB0646074B1B6F13F075
:100EA800020F11D000F08AFB801B41F28833984270
:100EB800F3D9032092E000BF003802400000474207
:100EC800800E474200700040EDB9A369002B00F086
:100ED8008480454A926802F00C02082A51D0022BFD
:100EE80017D0424B00221A6000F068FB04463E4BC4
:100EF8001B6813F0007F42D000F060FB001B022843
:100F0800F5D903206AE0384A136C23F08053136440
:100F1800DBE7364B00221A6000F050FB0546324BE7
:100F28001B6813F0007F06D000F048FB401B022826
:100F3800F5D9032052E0E369226A1343626A43EA5F
:100F48008213A26A5208013A43EA0243E26A43EA78
:100F58000263254A5360254B01221A6000F02EFBDC
:100F68000446214B1B6813F0007F06D100F026FBD6
:100F7800001B0228F5D9032030E000202EE00020D5
:100F88002CE0012B2CD0184B5B6803F48001E2693C
:100F9800914201D0012021E003F03F02216A8A42F8
:100FA80001D001201AE0616A47F6C0721A408A42ED
:100FB80001D0012012E003F44032A16A8A4201D034
:100FC80001200BE003F07063E26A93420AD001202B
:100FD80004E001207047012000E0002002B070BD4D
:100FE8000120FBE70020F9E7003802406000474293
:100FF800264B9B6803F00C03042B44D0082B01D02C
:10100800234870472DE9F04B204B5A6802F03F0205
:101018005B6813F4800F13D01C4B5968C1F3881117
:1010280000231C48A1FB0001FFF7CAF8174B5B68B7
:10103800C3F3014301335B00B0FBF3F0BDE8F08B71
:10104800124B5B68C3F388131E4600275C0100251A
:10105800E41A65EB0705A90141EA9461A001001BA8
:1010680061EB0501CB0043EA5073C400A01943EBC0
:1010780007018B0243EA9053840220461946002355
:10108800FFF79EF8D2E70348704700BF00380240D8
:101098000024F40040787D01002800F09E8070B59F
:1010A8000446504B1B6803F00F038B4209D2CBB2A6
:1010B8004C4A1370136803F00F038B4201D00120D0
:1010C80070BD236813F0020F17D013F0040F04D07B
:1010D800454A936843F4E0539360236813F0080F7C
:1010E80004D0414A936843F4604393603E4A93684E
:1010F80023F0F003A068034393600D46236813F0C0
:10110800010F32D06368012B21D09A1E012A25D9FC
:10111800354A126812F0020F61D033498A6822F00A
:10112800030213438B6000F049FA06462E4B9B6876
:1011380003F00C036268B3EB820F16D000F03EFA9E
:10114800801B41F288339842F0D90320B8E7264A39
:10115800126812F4003FE0D10120B1E7224A126878
:1011680012F0007FD9D10120AAE71E4B1B6803F0BB
:101178000F03AB4209D9EAB21A4B1A701B6803F085
:101188000F03AB4201D001209AE7236813F0040F44
:1011980006D0154A936823F4E053E1680B43936043
:1011A800236813F0080F07D00F4A936823F46043AD
:1011B800216943EAC1039360FFF71AFF0A4B9B6852
:1011C800C3F30313094AD35CD840094B1860094B91
:1011D800186800F0A7F9002072E701207047012085
:1011E8006EE700BF003C024000380240D8160008F5
:1011F8000800002004000020014B1868704700BF59
:101208000800002008B5FFF7F7FF044B9B68C3F3FD
:101218008223034AD35CD84008BD00BF003802408F
:10122800E816000808B5FFF7E7FF044B9B68C3F30F
:101238004233034AD35CD84008BD00BF003802409F
:10124800E816000800230F2B00F2D780F0B583B012
:1012580039E0072200E00022AA403A430234674DF1
:1012680045F82420664A1468F24302EA04054F68E8
:1012780017F4803F01D046EA0405614C2560646894
:1012880002EA04054F6817F4003F01D046EA040556
:101298005B4C6560A46802EA04054F6817F4801F78
:1012A80001D046EA0405564CA560E46822404D6822
:1012B80015F4001F01D046EA0402514CE2600133E4
:1012C8000F2B00F2988001229A400C6804EA02066B
:1012D800B242F4D14C68651E012D03D9112C01D0FE
:1012E800122C12D185685F000324BC4025EA04054E
:1012F800CC68BC402C438460456825EA02054C68EC
:10130800C4F300129A402A434260C4685F00032273
:10131800BA40D24314408D68BD402543C5604C682F
:10132800022C01D0122C13D1DD08083550F825E025
:1013380003F007044FEA840C0F2404FA0CF42EEA95
:10134800040E0C6904FA0CF444EA0E0440F8254033
:10135800046822404C6804F00304BC402243026045
:101368004A6812F0805FAAD000220192254A546C84
:1013780044F480445464526C02F480420192019A0D
:101388009C08A51C1D4A52F8257003F0030295001D
:101398000F22AA4027EA02071B4A90423FF45BAF9C
:1013A80002F5806290421AD002F58062904218D00D
:1013B80002F58062904216D002F58062904214D005
:1013C80002F58062904212D002F58062904210D0FD
:1013D80002F5806290423FF43CAF08223CE70122CC
:1013E8003AE7022238E7032236E7042234E70522E7
:1013F80032E7062230E703B0F0BD704700380140FD
:10140800003C0140003802400000024012B90904C3
:101418008161704781617047436931EA030301D0F4
:101428008161704709048161704790F83530DBB2FB
:10143800022B03D08023436501207047052380F8E1
:1014480035300268136823F00103136000207047E9
:10145800074AD36823F4E0631B041B0C000200F462
:10146800E060184340F0BF6040F40030D06070473F
:1014780000ED00E030B4174BDB68C3F30223C3F17F
:101488000704042C28BF04241D1D062D18D9033B6E
:101498004FF0FF3505FA04F421EA0401994005FAF2
:1014A80003F322EA0303194300280BDB0901C9B23D
:1014B80000F1604000F5614080F8001330BC7047CF
:1014C8000023E5E700F00F000901C9B2024B1954E7
:1014D800F4E700BF00ED00E014ED00E0002807DBB2
:1014E80000F01F02400901239340024A42F82030CD
:1014F800704700BF00E100E00138B0F1807F0AD2F8
:10150800064B5860064AF02182F8231000209860A4
:1015180007221A6070470120704700BF10E000E002
:1015280000ED00E010B504460E4B18784FF47A73BE
:10153800B3FBF0F30C4A1068B0FBF3F0FFF7DCFFE5
:1015480068B90F2C01D901200AE0002221464FF08A
:10155800FF30FFF78FFF054B1C60002000E00120E3
:1015680010BD00BF0000002008000020040000207B
:1015780008B50B4B1A6842F400721A601A6842F4F4
:1015880080621A601A6842F480721A600320FFF7BA
:101598005FFF0020FFF7C6FFFFF7A0F8002008BD97
:1015A800003C0240034A1168034B1B780B4413604C
:1015B800704700BF6800002000000020014B186839
:1015C800704700BF6800002038B50446FFF7F6FFF3
:1015D8000546B4F1FF3F02D0044B1B781C44FFF7CB
:1015E800EDFF401BA042FAD338BD00BF0000002029
:1015F800054BD3F8882042F47002C3F888204FF0D6
:1016080000629A60704700BF00ED00E0DFF834D058
:10161800002103E00C4B5B58435004310B480C4B42
:1016280042189A42F6D30B4A02E0002342F8043BE0
:10163800094B9A42F9D3FFF7DBFF00F011F8FEF7E8
:1016480085FF7047000002200017000800000020F6
:101658000C0000200C0000206C000020FEE70000B9
:1016680070B50D4E0D4CA41BA4100025A54209D140
:101678000B4E0C4C00F020F8A41BA4100025A5422A
:1016880005D170BD56F8253098470135EEE756F874
:10169800253098470135F2E7F8160008F8160008D3
:1016A800F8160008FC16000802440346934200D1CD
:1016B800704703F8011BF9E7F8B500BFF8BC08BC90
:1016C8009E467047F8B500BFF8BC08BC9E467047F8
:1016D80000000000000000000102030406070809DA
:0816E8000000000001020304F0
:0816F00008EBFF7F0100000080
:0416F800AD01000838
:0416FC008901000858
:0C17000001000000100000000024F400B4
:0400000508001615C4
:00000001FF
